{
  "_format": "hh-sol-artifact-1",
  "contractName": "DpidRegistry",
  "sourceName": "contracts/DpidRegistry.sol",
  "abi": [
    {
      "inputs": [],
      "stateMutability": "nonpayable",
      "type": "constructor"
    },
    {
      "anonymous": false,
      "inputs": [
        {
          "indexed": false,
          "internalType": "uint8",
          "name": "version",
          "type": "uint8"
        }
      ],
      "name": "Initialized",
      "type": "event"
    },
    {
      "anonymous": false,
      "inputs": [
        {
          "indexed": true,
          "internalType": "address",
          "name": "previousOwner",
          "type": "address"
        },
        {
          "indexed": true,
          "internalType": "address",
          "name": "newOwner",
          "type": "address"
        }
      ],
      "name": "OwnershipTransferred",
      "type": "event"
    },
    {
      "anonymous": false,
      "inputs": [
        {
          "indexed": false,
          "internalType": "bytes32",
          "name": "prefix",
          "type": "bytes32"
        },
        {
          "indexed": false,
          "internalType": "uint256",
          "name": "entryId",
          "type": "uint256"
        }
      ],
      "name": "Register",
      "type": "event"
    },
    {
      "anonymous": false,
      "inputs": [
        {
          "indexed": false,
          "internalType": "bytes32",
          "name": "prefix",
          "type": "bytes32"
        },
        {
          "indexed": false,
          "internalType": "address",
          "name": "registrant",
          "type": "address"
        },
        {
          "indexed": false,
          "internalType": "address[]",
          "name": "tokenGate",
          "type": "address[]"
        }
      ],
      "name": "RegisterOrganization",
      "type": "event"
    },
    {
      "anonymous": false,
      "inputs": [
        {
          "indexed": false,
          "internalType": "bytes32",
          "name": "prefix",
          "type": "bytes32"
        },
        {
          "indexed": false,
          "internalType": "address",
          "name": "registrant",
          "type": "address"
        },
        {
          "indexed": false,
          "internalType": "address[]",
          "name": "tokenGate",
          "type": "address[]"
        }
      ],
      "name": "UpdateOrganization",
      "type": "event"
    },
    {
      "inputs": [
        {
          "internalType": "bytes32",
          "name": "prefix",
          "type": "bytes32"
        },
        {
          "internalType": "uint256",
          "name": "entryId",
          "type": "uint256"
        }
      ],
      "name": "exists",
      "outputs": [
        {
          "internalType": "bool",
          "name": "",
          "type": "bool"
        }
      ],
      "stateMutability": "view",
      "type": "function"
    },
    {
      "inputs": [
        {
          "internalType": "bytes32",
          "name": "prefix",
          "type": "bytes32"
        },
        {
          "internalType": "uint256",
          "name": "entryId",
          "type": "uint256"
        }
      ],
      "name": "get",
      "outputs": [
        {
          "internalType": "uint256",
          "name": "",
          "type": "uint256"
        }
      ],
      "stateMutability": "view",
      "type": "function"
    },
    {
      "inputs": [],
      "name": "getFee",
      "outputs": [
        {
          "internalType": "uint256",
          "name": "",
          "type": "uint256"
        }
      ],
      "stateMutability": "view",
      "type": "function"
    },
    {
      "inputs": [],
      "name": "getOrgFee",
      "outputs": [
        {
          "internalType": "uint256",
          "name": "",
          "type": "uint256"
        }
      ],
      "stateMutability": "view",
      "type": "function"
    },
    {
      "inputs": [
        {
          "internalType": "bytes32",
          "name": "prefix",
          "type": "bytes32"
        }
      ],
      "name": "getOrganization",
      "outputs": [
        {
          "internalType": "uint256",
          "name": "",
          "type": "uint256"
        },
        {
          "internalType": "address",
          "name": "",
          "type": "address"
        }
      ],
      "stateMutability": "view",
      "type": "function"
    },
    {
      "inputs": [],
      "name": "initialize",
      "outputs": [],
      "stateMutability": "nonpayable",
      "type": "function"
    },
    {
      "inputs": [
        {
          "internalType": "bytes32",
          "name": "",
          "type": "bytes32"
        }
      ],
      "name": "organizations",
      "outputs": [
        {
          "internalType": "bytes32",
          "name": "prefix",
          "type": "bytes32"
        },
        {
          "internalType": "address",
          "name": "registrant",
          "type": "address"
        },
        {
          "internalType": "uint256",
          "name": "count",
          "type": "uint256"
        }
      ],
      "stateMutability": "view",
      "type": "function"
    },
    {
      "inputs": [],
      "name": "owner",
      "outputs": [
        {
          "internalType": "address",
          "name": "",
          "type": "address"
        }
      ],
      "stateMutability": "view",
      "type": "function"
    },
    {
      "inputs": [
        {
          "internalType": "bytes32",
          "name": "prefix",
          "type": "bytes32"
        },
        {
          "internalType": "uint256",
          "name": "entry",
          "type": "uint256"
        }
      ],
      "name": "put",
      "outputs": [
        {
          "internalType": "uint256",
          "name": "",
          "type": "uint256"
        }
      ],
      "stateMutability": "payable",
      "type": "function"
    },
    {
      "inputs": [
        {
          "internalType": "bytes32",
          "name": "prefix",
          "type": "bytes32"
        }
      ],
      "name": "registerOrg",
      "outputs": [],
      "stateMutability": "payable",
      "type": "function"
    },
    {
      "inputs": [
        {
          "internalType": "bytes32",
          "name": "prefix",
          "type": "bytes32"
        },
        {
          "internalType": "address[]",
          "name": "tokenGate",
          "type": "address[]"
        }
      ],
      "name": "registerOrgWithGate",
      "outputs": [],
      "stateMutability": "payable",
      "type": "function"
    },
    {
      "inputs": [],
      "name": "renounceOwnership",
      "outputs": [],
      "stateMutability": "nonpayable",
      "type": "function"
    },
    {
      "inputs": [
        {
          "internalType": "uint256",
          "name": "gweiFee",
          "type": "uint256"
        }
      ],
      "name": "setFee",
      "outputs": [],
      "stateMutability": "nonpayable",
      "type": "function"
    },
    {
      "inputs": [
        {
          "internalType": "uint256",
          "name": "gweiFee",
          "type": "uint256"
        }
      ],
      "name": "setOrgFee",
      "outputs": [],
      "stateMutability": "nonpayable",
      "type": "function"
    },
    {
      "inputs": [
        {
          "internalType": "string",
          "name": "source",
          "type": "string"
        }
      ],
      "name": "stringToBytes32",
      "outputs": [
        {
          "internalType": "bytes32",
          "name": "result",
          "type": "bytes32"
        }
      ],
      "stateMutability": "pure",
      "type": "function"
    },
    {
      "inputs": [
        {
          "internalType": "address",
          "name": "newOwner",
          "type": "address"
        }
      ],
      "name": "transferOwnership",
      "outputs": [],
      "stateMutability": "nonpayable",
      "type": "function"
    },
    {
      "inputs": [
        {
          "internalType": "bytes32",
          "name": "prefix",
          "type": "bytes32"
        },
        {
          "internalType": "address[]",
          "name": "tokenGate",
          "type": "address[]"
        }
      ],
      "name": "updateOrg",
      "outputs": [],
      "stateMutability": "nonpayable",
      "type": "function"
    },
    {
      "inputs": [
        {
          "internalType": "bytes32",
          "name": "prefix",
          "type": "bytes32"
        }
      ],
      "name": "validateCharacters",
      "outputs": [
        {
          "internalType": "bool",
          "name": "valid",
          "type": "bool"
        }
      ],
      "stateMutability": "pure",
      "type": "function"
    },
    {
      "inputs": [],
      "name": "withdraw",
      "outputs": [],
      "stateMutability": "nonpayable",
      "type": "function"
    }
  ],
  "bytecode": "0x60806040523480156200001157600080fd5b50620000226200002860201b60201c565b620001d2565b600060019054906101000a900460ff16156200007b576040517f08c379a0000000000000000000000000000000000000000000000000000000008152600401620000729062000126565b60405180910390fd5b60ff801660008054906101000a900460ff1660ff1614620000ec5760ff6000806101000a81548160ff021916908360ff1602179055507f7f26b83ff96e1f2b6a682f133852f6798a09c465da95921460cefb384740249860ff604051620000e3919062000148565b60405180910390a15b565b6000620000fd60278362000165565b91506200010a8262000183565b604082019050919050565b620001208162000176565b82525050565b600060208201905081810360008301526200014181620000ee565b9050919050565b60006020820190506200015f600083018462000115565b92915050565b600082825260208201905092915050565b600060ff82169050919050565b7f496e697469616c697a61626c653a20636f6e747261637420697320696e69746960008201527f616c697a696e6700000000000000000000000000000000000000000000000000602082015250565b61233280620001e26000396000f3fe6080604052600436106101145760003560e01c80638129fc1c116100a0578063ced72f8711610064578063ced72f871461037f578063cef25dbc146103aa578063cfb51928146103c6578063da4a984214610403578063f2fde38b1461043357610114565b80638129fc1c146102aa57806381e104ca146102c15780638da5cb5b146102ec578063a40a990b14610317578063ba51b14e1461034057610114565b80634b22d5d0116100e75780634b22d5d0146101c75780634fb6020e146102045780635cb316351461022d57806369fe0e2d1461026a578063715018a61461029357610114565b80631785b6771461011957806318ae19c21461013557806322b3cd4e146101725780633ccfd60b146101b0575b600080fd5b610133600480360381019061012e91906118b3565b61045c565b005b34801561014157600080fd5b5061015c60048036038101906101579190611930565b6104d8565b6040516101699190611e34565b60405180910390f35b34801561017e57600080fd5b50610199600480360381019061019491906118b3565b610568565b6040516101a7929190611e4f565b60405180910390f35b3480156101bc57600080fd5b506101c561060e565b005b3480156101d357600080fd5b506101ee60048036038101906101e991906118b3565b61066c565b6040516101fb9190611c25565b60405180910390f35b34801561021057600080fd5b5061022b600480360381019061022691906119ad565b610845565b005b34801561023957600080fd5b50610254600480360381019061024f9190611930565b610857565b6040516102619190611c25565b60405180910390f35b34801561027657600080fd5b50610291600480360381019061028c91906119ad565b6108d8565b005b34801561029f57600080fd5b506102a86108ea565b005b3480156102b657600080fd5b506102bf6108fe565b005b3480156102cd57600080fd5b506102d6610d24565b6040516102e39190611e34565b60405180910390f35b3480156102f857600080fd5b50610301610d2e565b60405161030e9190611c0a565b60405180910390f35b34801561032357600080fd5b5061033e600480360381019061033991906118dc565b610d58565b005b34801561034c57600080fd5b50610367600480360381019061036291906118b3565b610e7c565b60405161037693929190611c99565b60405180910390f35b34801561038b57600080fd5b50610394610ec6565b6040516103a19190611e34565b60405180910390f35b6103c460048036038101906103bf91906118dc565b610ed0565b005b3480156103d257600080fd5b506103ed60048036038101906103e8919061196c565b610f6b565b6040516103fa9190611c40565b60405180910390f35b61041d60048036038101906104189190611930565b610f95565b60405161042a9190611e34565b60405180910390f35b34801561043f57600080fd5b5061045a6004803603810190610455919061188a565b611251565b005b6104d581600067ffffffffffffffff8111156104a1577f4e487b7100000000000000000000000000000000000000000000000000000000600052604160045260246000fd5b6040519080825280602002602001820160405280156104cf5781602001602082028036833780820191505090505b50610ed0565b50565b600082606560008581526020019081526020016000206000015414610532576040517f08c379a000000000000000000000000000000000000000000000000000000000815260040161052990611d94565b60405180910390fd5b60006065600085815260200190815260200160002090508060030160008481526020019081526020016000205491505092915050565b600080826065600085815260200190815260200160002060000154146105c3576040517f08c379a00000000000000000000000000000000000000000000000000000000081526004016105ba90611d94565b60405180910390fd5b600060656000858152602001908152602001600020905080600401548160010160009054906101000a900473ffffffffffffffffffffffffffffffffffffffff169250925050915091565b6106166112d5565b6000610620610d2e565b90508073ffffffffffffffffffffffffffffffffffffffff166108fc479081150290604051600060405180830381858888f19350505050158015610668573d6000803e3d6000fd5b5050565b600080600090506000806040518060600160405280602781526020016122d660279139905060005b602060ff1681101561082357600060f81b8682602081106106de577f4e487b7100000000000000000000000000000000000000000000000000000000600052603260045260246000fd5b1a60f81b7effffffffffffffffffffffffffffffffffffffffffffffffffffffffffffff1916141561071257809250610823565b60005b825181101561080f57828181518110610757577f4e487b7100000000000000000000000000000000000000000000000000000000600052603260045260246000fd5b602001015160f81c60f81b7effffffffffffffffffffffffffffffffffffffffffffffffffffffffffffff19168783602081106107bd577f4e487b7100000000000000000000000000000000000000000000000000000000600052603260045260246000fd5b1a60f81b7effffffffffffffffffffffffffffffffffffffffffffffffffffffffffffff191614156107fc5784806107f490611ff5565b95505061080f565b808061080790611ff5565b915050610715565b50808061081b90611ff5565b915050610694565b50818310156108385760009350505050610840565b600193505050505b919050565b61084d6112d5565b8060678190555050565b6000826065600085815260200190815260200160002060000154146108b1576040517f08c379a00000000000000000000000000000000000000000000000000000000081526004016108a890611d94565b60405180910390fd5b60006065600085815260200190815260200160002090508060040154831091505092915050565b6108e06112d5565b8060668190555050565b6108f26112d5565b6108fc6000611353565b565b60008060019054906101000a900460ff1615905080801561092f5750600160008054906101000a900460ff1660ff16105b8061095c575061093e30611419565b15801561095b5750600160008054906101000a900460ff1660ff16145b5b61099b576040517f08c379a000000000000000000000000000000000000000000000000000000000815260040161099290611db4565b60405180910390fd5b60016000806101000a81548160ff021916908360ff16021790555080156109d8576001600060016101000a81548160ff0219169083151502179055505b6601c6bf526340006066819055506706f05b59d3b2000060678190555060008067ffffffffffffffff811115610a37577f4e487b7100000000000000000000000000000000000000000000000000000000600052604160045260246000fd5b604051908082528060200260200182016040528015610a655781602001602082028036833780820191505090505b509050610a7360008261143c565b610a9d7f64706964000000000000000000000000000000000000000000000000000000008261143c565b610ac77f64636974650000000000000000000000000000000000000000000000000000008261143c565b610af17f64657600000000000000000000000000000000000000000000000000000000008261143c565b610b1b7f73746167650000000000000000000000000000000000000000000000000000008261143c565b610b457f62657461000000000000000000000000000000000000000000000000000000008261143c565b610b6f7f64657363690000000000000000000000000000000000000000000000000000008261143c565b610b997f6e6f6465000000000000000000000000000000000000000000000000000000008261143c565b610bc37f636f6d706f736974696f6e0000000000000000000000000000000000000000008261143c565b610bed7f6e6f6465730000000000000000000000000000000000000000000000000000008261143c565b610c177f646f6900000000000000000000000000000000000000000000000000000000008261143c565b610c417f61000000000000000000000000000000000000000000000000000000000000008261143c565b610c6b7f64000000000000000000000000000000000000000000000000000000000000008261143c565b610c957f78000000000000000000000000000000000000000000000000000000000000008261143c565b610cbf7f7a000000000000000000000000000000000000000000000000000000000000008261143c565b610cc76115cf565b508015610d215760008060016101000a81548160ff0219169083151502179055507f7f26b83ff96e1f2b6a682f133852f6798a09c465da95921460cefb38474024986001604051610d189190611cf9565b60405180910390a15b50565b6000606754905090565b6000603360009054906101000a900473ffffffffffffffffffffffffffffffffffffffff16905090565b81610d61611628565b73ffffffffffffffffffffffffffffffffffffffff166065600083815260200190815260200160002060010160009054906101000a900473ffffffffffffffffffffffffffffffffffffffff1673ffffffffffffffffffffffffffffffffffffffff1614610e04576040517f08c379a0000000000000000000000000000000000000000000000000000000008152600401610dfb90611d74565b60405180910390fd5b600060656000858152602001908152602001600020905082816002019080519060200190610e33929190611691565b507f2f78800ab5b47f6617eaf3124043ced0ee3ae49c0b4a77167ee4cd2fbc674f0484610e5e611628565b85604051610e6e93929190611c5b565b60405180910390a150505050565b60656020528060005260406000206000915090508060000154908060010160009054906101000a900473ffffffffffffffffffffffffffffffffffffffff16908060040154905083565b6000606654905090565b606754341015610f15576040517f08c379a0000000000000000000000000000000000000000000000000000000008152600401610f0c90611e14565b60405180910390fd5b610f1e8261066c565b610f5d576040517f08c379a0000000000000000000000000000000000000000000000000000000008152600401610f5490611d94565b60405180910390fd5b610f67828261143c565b5050565b600080829050600081511415610f87576000801b915050610f90565b60208301519150505b919050565b6000606654341015610fdc576040517f08c379a0000000000000000000000000000000000000000000000000000000008152600401610fd390611e14565b60405180910390fd5b82606560008581526020019081526020016000206000015414611034576040517f08c379a000000000000000000000000000000000000000000000000000000000815260040161102b90611d94565b60405180910390fd5b60006065600085815260200190815260200160002090506000816002018054905011156111d0576000816002018054905090506000805b8281101561118c5760008460020182815481106110b1577f4e487b7100000000000000000000000000000000000000000000000000000000600052603260045260246000fd5b9060005260206000200160009054906101000a900473ffffffffffffffffffffffffffffffffffffffff16905060008173ffffffffffffffffffffffffffffffffffffffff166370a08231611104611628565b6040518263ffffffff1660e01b81526004016111209190611c0a565b60206040518083038186803b15801561113857600080fd5b505afa15801561114c573d6000803e3d6000fd5b505050506040513d601f19601f8201168201806040525081019061117091906119d6565b111561118057600192505061118c565b8160010191505061106b565b50806111cd576040517f08c379a00000000000000000000000000000000000000000000000000000000081526004016111c490611d54565b60405180910390fd5b50505b60008160040154905083826003016000838152602001908152602001600020819055507fd5fa0e9a716b3ec4895a48223ad309e2d3fa5e27f04d8dc9b3c33cc738a50eb08582604051611224929190611cd0565b60405180910390a181600401600081548092919061124190611ff5565b9190505550809250505092915050565b6112596112d5565b600073ffffffffffffffffffffffffffffffffffffffff168173ffffffffffffffffffffffffffffffffffffffff1614156112c9576040517f08c379a00000000000000000000000000000000000000000000000000000000081526004016112c090611d34565b60405180910390fd5b6112d281611353565b50565b6112dd611628565b73ffffffffffffffffffffffffffffffffffffffff166112fb610d2e565b73ffffffffffffffffffffffffffffffffffffffff1614611351576040517f08c379a000000000000000000000000000000000000000000000000000000000815260040161134890611dd4565b60405180910390fd5b565b6000603360009054906101000a900473ffffffffffffffffffffffffffffffffffffffff16905081603360006101000a81548173ffffffffffffffffffffffffffffffffffffffff021916908373ffffffffffffffffffffffffffffffffffffffff1602179055508173ffffffffffffffffffffffffffffffffffffffff168173ffffffffffffffffffffffffffffffffffffffff167f8be0079c531659141344cd1fd0a4f28419497f9722a3daafe3b4186f6b6457e060405160405180910390a35050565b6000808273ffffffffffffffffffffffffffffffffffffffff163b119050919050565b6000801b60656000848152602001908152602001600020600001541480156114c65750600073ffffffffffffffffffffffffffffffffffffffff166065600084815260200190815260200160002060010160009054906101000a900473ffffffffffffffffffffffffffffffffffffffff1673ffffffffffffffffffffffffffffffffffffffff16145b611505576040517f08c379a00000000000000000000000000000000000000000000000000000000081526004016114fc90611d14565b60405180910390fd5b6000606560008481526020019081526020016000209050611524611628565b8160010160006101000a81548173ffffffffffffffffffffffffffffffffffffffff021916908373ffffffffffffffffffffffffffffffffffffffff16021790555082816000018190555081816002019080519060200190611587929190611691565b507f1603286ac6b9f753cbc1a1d33146ab15a401314d80d8553aa8fb1473df47f3ec836115b2611628565b846040516115c293929190611c5b565b60405180910390a1505050565b600060019054906101000a900460ff1661161e576040517f08c379a000000000000000000000000000000000000000000000000000000000815260040161161590611df4565b60405180910390fd5b611626611630565b565b600033905090565b600060019054906101000a900460ff1661167f576040517f08c379a000000000000000000000000000000000000000000000000000000000815260040161167690611df4565b60405180910390fd5b61168f61168a611628565b611353565b565b82805482825590600052602060002090810192821561170a579160200282015b828111156117095782518260006101000a81548173ffffffffffffffffffffffffffffffffffffffff021916908373ffffffffffffffffffffffffffffffffffffffff160217905550916020019190600101906116b1565b5b509050611717919061171b565b5090565b5b8082111561173457600081600090555060010161171c565b5090565b600061174b61174684611e9d565b611e78565b9050808382526020820190508285602086028201111561176a57600080fd5b60005b8581101561179a578161178088826117e2565b84526020840193506020830192505060018101905061176d565b5050509392505050565b60006117b76117b284611ec9565b611e78565b9050828152602081018484840111156117cf57600080fd5b6117da848285611fb5565b509392505050565b6000813590506117f181612290565b92915050565b600082601f83011261180857600080fd5b8135611818848260208601611738565b91505092915050565b600081359050611830816122a7565b92915050565b600082601f83011261184757600080fd5b81356118578482602086016117a4565b91505092915050565b60008135905061186f816122be565b92915050565b600081519050611884816122be565b92915050565b60006020828403121561189c57600080fd5b60006118aa848285016117e2565b91505092915050565b6000602082840312156118c557600080fd5b60006118d384828501611821565b91505092915050565b600080604083850312156118ef57600080fd5b60006118fd85828601611821565b925050602083013567ffffffffffffffff81111561191a57600080fd5b611926858286016117f7565b9150509250929050565b6000806040838503121561194357600080fd5b600061195185828601611821565b925050602061196285828601611860565b9150509250929050565b60006020828403121561197e57600080fd5b600082013567ffffffffffffffff81111561199857600080fd5b6119a484828501611836565b91505092915050565b6000602082840312156119bf57600080fd5b60006119cd84828501611860565b91505092915050565b6000602082840312156119e857600080fd5b60006119f684828501611875565b91505092915050565b6000611a0b8383611a17565b60208301905092915050565b611a2081611f44565b82525050565b611a2f81611f44565b82525050565b6000611a4082611f0a565b611a4a8185611f22565b9350611a5583611efa565b8060005b83811015611a86578151611a6d88826119ff565b9750611a7883611f15565b925050600181019050611a59565b5085935050505092915050565b611a9c81611f56565b82525050565b611aab81611f62565b82525050565b611aba81611fa3565b82525050565b6000611acd600c83611f33565b9150611ad8826120ad565b602082019050919050565b6000611af0602683611f33565b9150611afb826120d6565b604082019050919050565b6000611b13601883611f33565b9150611b1e82612125565b602082019050919050565b6000611b36601283611f33565b9150611b418261214e565b602082019050919050565b6000611b59600e83611f33565b9150611b6482612177565b602082019050919050565b6000611b7c602e83611f33565b9150611b87826121a0565b604082019050919050565b6000611b9f602083611f33565b9150611baa826121ef565b602082019050919050565b6000611bc2602b83611f33565b9150611bcd82612218565b604082019050919050565b6000611be5600c83611f33565b9150611bf082612267565b602082019050919050565b611c0481611f8c565b82525050565b6000602082019050611c1f6000830184611a26565b92915050565b6000602082019050611c3a6000830184611a93565b92915050565b6000602082019050611c556000830184611aa2565b92915050565b6000606082019050611c706000830186611aa2565b611c7d6020830185611a26565b8181036040830152611c8f8184611a35565b9050949350505050565b6000606082019050611cae6000830186611aa2565b611cbb6020830185611a26565b611cc86040830184611bfb565b949350505050565b6000604082019050611ce56000830185611aa2565b611cf26020830184611bfb565b9392505050565b6000602082019050611d0e6000830184611ab1565b92915050565b60006020820190508181036000830152611d2d81611ac0565b9050919050565b60006020820190508181036000830152611d4d81611ae3565b9050919050565b60006020820190508181036000830152611d6d81611b06565b9050919050565b60006020820190508181036000830152611d8d81611b29565b9050919050565b60006020820190508181036000830152611dad81611b4c565b9050919050565b60006020820190508181036000830152611dcd81611b6f565b9050919050565b60006020820190508181036000830152611ded81611b92565b9050919050565b60006020820190508181036000830152611e0d81611bb5565b9050919050565b60006020820190508181036000830152611e2d81611bd8565b9050919050565b6000602082019050611e496000830184611bfb565b92915050565b6000604082019050611e646000830185611bfb565b611e716020830184611a26565b9392505050565b6000611e82611e93565b9050611e8e8282611fc4565b919050565b6000604051905090565b600067ffffffffffffffff821115611eb857611eb761206d565b5b602082029050602081019050919050565b600067ffffffffffffffff821115611ee457611ee361206d565b5b611eed8261209c565b9050602081019050919050565b6000819050602082019050919050565b600081519050919050565b6000602082019050919050565b600082825260208201905092915050565b600082825260208201905092915050565b6000611f4f82611f6c565b9050919050565b60008115159050919050565b6000819050919050565b600073ffffffffffffffffffffffffffffffffffffffff82169050919050565b6000819050919050565b600060ff82169050919050565b6000611fae82611f96565b9050919050565b82818337600083830152505050565b611fcd8261209c565b810181811067ffffffffffffffff82111715611fec57611feb61206d565b5b80604052505050565b600061200082611f8c565b91507fffffffffffffffffffffffffffffffffffffffffffffffffffffffffffffffff8214156120335761203261203e565b5b600182019050919050565b7f4e487b7100000000000000000000000000000000000000000000000000000000600052601160045260246000fd5b7f4e487b7100000000000000000000000000000000000000000000000000000000600052604160045260246000fd5b6000601f19601f8301169050919050565b7f5072656669782074616b656e0000000000000000000000000000000000000000600082015250565b7f4f776e61626c653a206e6577206f776e657220697320746865207a65726f206160008201527f6464726573730000000000000000000000000000000000000000000000000000602082015250565b7f556e617574686f72697a65643a20546f6b656e20676174650000000000000000600082015250565b7f4f6e6c79206f776e657220757064617465730000000000000000000000000000600082015250565b7f496e76616c696420707265666978000000000000000000000000000000000000600082015250565b7f496e697469616c697a61626c653a20636f6e747261637420697320616c72656160008201527f647920696e697469616c697a6564000000000000000000000000000000000000602082015250565b7f4f776e61626c653a2063616c6c6572206973206e6f7420746865206f776e6572600082015250565b7f496e697469616c697a61626c653a20636f6e7472616374206973206e6f74206960008201527f6e697469616c697a696e67000000000000000000000000000000000000000000602082015250565b7f4665652072657175697265640000000000000000000000000000000000000000600082015250565b61229981611f44565b81146122a457600080fd5b50565b6122b081611f62565b81146122bb57600080fd5b50565b6122c781611f8c565b81146122d257600080fd5b5056fe6162636465666768696a6b6c6d6e6f707172737475767778797a303132333435363738392d5f2ea2646970667358221220d727b8c813a7e8b48a259679bb9f5f9ce7ca5773e9e6c93aaf10d337257bc13e64736f6c63430008040033",
  "linkReferences": {},
  "deployedLinkReferences": {}
}